:0E0000000C9433000C9400000C9400000C943F
:10000E0000000C9400000C9400000C9400000C9462
:10001E0000000C9400000C9400000C9400000C9452
:10002E0000000C9400000C9400000C9400000C9442
:10003E0000000C9400000C9400000C9400000C9432
:10004E0000000C9400003F065B4F666D7D077F6FCE
:10005E000A00600254000000F894EE27ECBBF1E0B9
:10006E00FBBFEBBFE5BF8DE0A2E0BB27ED938A950A
:10007E00E9F780E098E0A0E6ED930197E9F7EEE569
:10008E00F0E085919591009761F0A591B59105905D
:10009E001590BF01F00105900D920197E1F7FB015C
:1000AE00F0CFEFE5EDBFE8E0EEBFC0E6D2E00C9496
:1000BE006000EFEFE4BB2297E0E0E883E983A881DC
:1000CE00B9811A9784F4E881F981E05AFD4FE081F5
:1000DE00E5BBA4EFB1E00E947D00E881F981319685
:1000EE00E883F983ECCF2296E6CFFFCF109639F056
:1000FE008AEF90E00197F1F7A8951197C9F7089547
:00000001FF
