:100000000C942F000C9400000C9400000C94000041
:100010000C9400000C9400000C9400000C94000060
:100020000C9400000C9400000C9400000C94000050
:100030000C9400000C9400000C9400000C94000040
:100040000C9400000C9400000C9400000C94000030
:100050000C9400003F065B4F666D7D077F6FF89440
:10006000EE27ECBBF1E0FBBFEBBFE5BF8DE0A2E00C
:10007000BB27ED938A95E9F780E094E0A0E6ED9345
:100080000197E9F7EFE5EDBFE4E0EEBFC0E6D1E0B0
:100090000C944A002A978AE0A0E0B0E0E4E5F0E0A2
:1000A0000E94890000E010E0EFEFE4BBE0E0E5BB78
:1000B000EABBEBBB1ED0C8990DC00F5F1F4F0A30C3
:1000C000E0E01E0714F000E010E013D0A8EEB3E06B
:1000D0000E947F00C9990BC001501040112312F4F7
:1000E00000E010E006D0A8EEB3E00E947F00E2CF6F
:1000F000FFCFDE01A00FB11FEC91E5BB0895109674
:1001000039F08AEF90E00197F1F7A8951197C9F7B8
:100110000895AC0FBD1F05900D928A95E1F70895E3
:00000001FF
