:100000000C942F000C945C000C9400000C940000E5
:100010000C9466000C9400000C9400000C940000FA
:100020000C9400000C9400000C9400000C94000050
:100030000C9400000C9400000C9400000C94000040
:100040000C9400000C9400000C9400000C94000030
:100050000C94000000000200060054000000F89418
:10006000EE27ECBBF1E0FBBFEBBFE5BF8DE0A2E00C
:10007000BB27ED938A95E9F780E098E0A0E6ED9341
:100080000197E9F7E6E5F0E085919591009761F039
:10009000A591B59105901590BF01F00105900D92C5
:1000A0000197E1F7FB01F0CFEFE5EDBFE8E0EEBF30
:1000B000C0E6D2E00C949800EA93FA93EFE0E5BD35
:1000C000E1E0F0E03F01F991E99118950A921A9266
:1000D0009A93AA93BA93EA93FA93EFB7EA93E1E07B
:1000E000F0E0E615F705D1F4F20131962F01D201C7
:1000F000E2E0F0E00E94DA00309729F4A89B02C009
:10010000A89801C0A89AE8E0F0E0E415F50531F4FC
:10011000A8984424552466247724E5BDE991EFBFCF
:10012000F991E991B991A99199911990099018952E
:10013000E0E0EABBEBBBE7BBE8BBE1E0E4BBE0E04F
:10014000E5BBE1BBE4E0E2BBE0E0E2BDE8E0E5BD49
:10015000E0E0E4BDE4EFE3BDE0E8E9BFEBB7E06475
:10016000EBBFE2E0E5BFE0E0E4BFE0E4EABF7894A3
:1001700002D0FECFFFCFE5B7EF78E5BFEFB77894B9
:100180008895EFBF0895F195E195F040089500241A
:10019000112490E1AA0FBB1F001C111C0E1A1F0A8C
:1001A00018F40E0E1F1E01C0A1609A9599F7FD016B
:1001B000D0010895E894B7FF04C0A095B0951196BA
:1001C0006894F7FDE0DFE3DFFD010EF4DCDF089566
:00000001FF
