:0C0000000C943C000C9400000C940000D8
:10000C000C9400000C9400000C9400000C94000064
:10001C000C9400000C9400000C9400000C94000054
:10002C000C9400000C9400000C9400000C94000044
:10003C000C9400000C9400000C9400000C94000034
:10004C000C9400000C940000FEFDFBF7EFDFBF7F6B
:10005C003F065B4F666D7D077F6F800000000000E0
:10006C00000000000800040068000000F894EE276F
:10007C00ECBBF1E0FBBFEBBFE5BF8DE0A2E0BB2723
:10008C00ED938A95E9F780E098E0A0E6ED9301976F
:10009C00E9F7E0E7F0E085919591009761F0A59183
:1000AC00B59105901590BF01F00105900D92019747
:1000BC00E1F7FB01F0CFEFE5EDBFE8E0EEBFC0E606
:1000CC00D2E00C946900EFEFEABBE4BBE1BB01E0CA
:1000DC0010E0E4E5F0E0049005BAD301D1D0E5E5F9
:1000EC00F0E0049005BAD301D7D0E6E5F0E0E0D01B
:1000FC00E7E5F0E0049005BAD401C2D0E8E5F0E001
:10010C00049005BAD401C8D0E9E5F0E0D1D0EAE515
:10011C00F0E0049005BAD501B3D0EBE5F0E0049023
:10012C0005BAD501B9D0E1E0F0E0E017F10709F02C
:10013C0047C0819923C0C6D004F1F30131963F0129
:10014C00ECE3F0E06E167F06B4F0F40131964F014B
:10015C0066247724ECE3F0E08E169F0664F0F5013C
:10016C0031965F0188249924E8E1F0E0AE16BF06D1
:10017C0014F0AA24BB244424552422C0A3D004F197
:10018C00F30131973F01002406140704BCF0F4017D
:10019C0031974F01EBE3F0E03F0100240814090410
:1001AC006CF0F50131975F01EBE3F0E04F010024B7
:1001BC000A140B041CF0E7E1F0E05F014424552421
:1001CC00809B03C000E010E002C001E010E08599C4
:1001DC002BC0829B0CC07ED0F50131965F0131970C
:1001EC00E8E1F0E0AE16BF0614F0AA24BB24839B12
:1001FC000CC070D0F40131964F013197ECE3F0E074
:10020C008E169F0614F088249924849B0CC062D00F
:10021C00F30131963F013197ECE3F0E06E167F0667
:10022C0014F0662477242AC0829B0CC053D0F501AD
:10023C0031975F01319600240A140B041CF0E7E19E
:10024C00F0E05F01839B0CC045D0F40131974F0166
:10025C0031960024081409041CF0EBE3F0E04F0184
:10026C00849B0CC037D0F30131973F0131960024A9
:10027C00061407041CF0EBE3F0E03F012ACFFFCF9C
:10028C00EAE0F0E00E949A01E45AFF4F04900BBAA6
:10029C00A5E0B0E00C947401EAE0F0E00E94950156
:1002AC00E45AFF4F04900BBAA5E0B0E00C94740133
:1002BC00049005BAE6E6F0E004900BBAA5E0B0E0D5
:1002CC000C947401F20131962F01E3E0F0E04E162C
:1002DC005F060895A8ECB0E00C947401109639F008
:1002EC008AEF90E00197F1F7A8951197C9F7089557
:1002FC00F195E195F04008950024112490E1AA0FA6
:10030C00BB1F001C111C0E1A1F0A18F40E0E1F1E08
:10031C0001C0A1609A9599F7FD01D001089512D002
:10032C00EBDF0EF4E5DF0895E894B7FF04C0A09569
:10033C00B09511966894F7FDDBDFDEDFFD010EF45E
:10034C00D7DF0895E894F7FF02C0D2DF6894B7FFB7
:10035C0006C0A095B095119600F8039400FA089584
:00000001FF
