:100000000C943F000C9400000C9400000C946C00C5
:100010000C9400000C9400000C9400000C94000060
:100020000C9400000C9400000C9400000C94000050
:100030000C9400000C9400000C9400000C94000040
:100040000C9400000C9400000C9400000C94000030
:100050000C940000FE00FD00FB00F7000700080004
:1000600009000400050006000100020003000B0067
:1000700000000A0080C00200600274000000F894D2
:10008000EE27ECBBF1E0FBBFEBBFE5BF8DE0A2E0EC
:10009000BB27ED938A95E9F780E098E0A0E6ED9321
:1000A0000197E9F7E6E7F0E085919591009761F017
:1000B000A591B59105901590BF01F00105900D92A5
:1000C0000197E1F7FB01F0CFEFE5EDBFE8E0EEBF10
:1000D000C0E6D2E00C94B9000A921A92AA93BA939D
:1000E000EA93FA93EFB7EA930E943E0124E030E0EE
:1000F00000E010E00430E0E01E0704F5F801A4E59C
:10010000B0E0EE0FFF1FEA0FFB1F049002BA8499C4
:1001100003C020E030E012C0859903C021E030E048
:100120000DC0869903C022E030E008C0879903C063
:1001300023E030E003C00F5F1F4FDCCFA6E0A09F9D
:10014000F001A19FF00DE45AFF4FDF01F901EE0F1E
:10015000FF1FEA0FFB1F0E943A010E9443012496F1
:10016000E991EFBFF991E991B991A991199009909D
:100170001895E0E0EABBEBBBE7BBE8BBE4BBE5BB43
:10018000EFE0E1BBE0EFE2BBEBB7E062EBBFE0E04A
:10019000E5BFE4BFE0E2EABFA0E12DD07894FFCF55
:1001A000FFCFAA93EBB3EF70AE2FE881E07FEA2B8D
:1001B000EBBB82E08A95F1F7DA9A82E08A95F1F753
:1001C000DA9882E08A95F1F73EC0AA93A881E9DF28
:1001D000E881E295E883A881E4DF81E18A95F1F77F
:1001E00032C0A2E032D0ACE0F0DFA1E02ED0E0E0FF
:1001F0004E2E5E2E0895AA93EAB3E06FEABBD29A20
:10020000D09AD19ADA98D898D9987880E881E0582D
:10021000E0936202E881E054E0936302A4E1B0E07D
:100220000E94300117D016D015D0A0E2BADF81E2CB
:100230008A95F1F7A8E2C9DFA4E0C7DFA5E8C5DF2A
:10024000A6E0C3DFCEDF21960895BFDFA3E0B0E0D4
:100250000C943001A0E3A5DF81E28A95F1F70895BF
:10026000109639F0A8958AEF90E00197F1F7119771
:10027000C9F708950590F491E02D08953A932A93D3
:100280001A930A9308953B812A8119810881089560
:00000001FF
