:0C0000000C94BD000C9400000C94000057
:10000C000C9400000C9400000C9400000C94000064
:10001C000C9400000C9400000C9400000C94000054
:10002C000C9400000C9400000C9400000C94000044
:10003C000C9400000C9400000C9400000C94000034
:10004C000C9400000C940000FE00FD00FB00F70077
:10005C00070008000900040005000600010002006A
:10006C0003000B0000000A0001002A002A2A002AC3
:10007C002A2A002A2A2A2A00796F75722070617345
:10008C007320697300202020202020636F7272651A
:10009C006374006F70656E210020202020696E63F0
:1000AC006F727265637400656E7465722070617333
:1000BC0073776F726400726573657420706173730B
:1000CC0000656E746572206F6C6420706173733A96
:1000DC00007061737320636F727265637400656E78
:1000EC00746572206E65772070617373203A006EB0
:1000FC0065772070617373206973203A20007061FA
:10010C00737320696E636F727265637400706C65D3
:10011C006173652072657065617400436C6F736503
:10012C00202100456E7465722050617373776F7275
:10013C00643A000001002D4E414E00494E4600002D
:10014C0080C002000400740002006002760003000C
:10015C0062027800040065027B00050069027F00E2
:10016C0001007E024001020082024C010000F89462
:10017C00EE27ECBBF1E0FBBFEBBFE5BF8DE0A2E0EF
:10018C00BB27ED938A95E9F780E098E0A0E6ED9324
:10019C000197E9F7EEE4F1E085919591009761F014
:1001AC00A591B59105901590BF01F00105900D92A8
:1001BC000197E1F7FB01F0CFEFE5EDBFE8E0EEBF13
:1001CC00C0E6D2E00C94EC012497E3E0E883E0E095
:1001DC00E983EA83EB83AA81BB81149754F5EA8106
:1001EC00FB81A4E5B0E0EE0FFF1FEA0FFB1F0490AC
:1001FC0002BA849906C0E0E0E883E983849BFECFD1
:10020C0018C0859907C0E1E0F0E0E883F983859B8D
:10021C00FECF0FC0869907C0E2E0F0E0E883F983D7
:10022C00869BFECF06C0EA81FB813196EA83FB8375
:10023C00D2CFA881B981139791F0AA81BB81E6E056
:10024C000E94E004E45AFF4FDF01E881F981EE0FD0
:10025C00FF1FEA0FFB1F0E941A052496089524968F
:10026C00B3CFBA93AA93E1E0F0E0E415F50591F46D
:10027C00E881F981E0937202F0937302F2013196F6
:10028C002F01688079800E94CA03A0E6B2E00E9428
:10029C00F8039AC0E2E0F0E0E415F50591F4E8818A
:1002AC00F981E0937402F0937502F20131962F01FB
:1002BC00888099800E94CA03A2E6B2E00E94F803EB
:1002CC0083C0E3E0F0E0E415F50591F4E881F981F1
:1002DC00E0937602F0937702F20131962F01A88019
:1002EC00B9800E94CA03A5E6B2E00E94F8036CC074
:1002FC00E4E0F0E0E415F50509F066C0E881F98169
:10030C00E0937802F0937902E1E0F0E02F01C880ED
:10031C00D9800E94CA03A9E6B2E00E9448047A92EE
:10032C006A920E9450049A928A920E945004BA9245
:10033C00AA920E945004DA92CA92AEE6B2E00E94EF
:10034C006B03AEE6B2E00E944804E0917202F091B9
:10035C0073020E945804E0917402F09175020E949D
:10036C005E04E0917602F09177020E946504A09100
:10037C007802B0917902EA0FFB1FE0937A02F093B6
:10038C007B02E0917C02F0917D02A0917A02B09107
:10039C007B02EA17FB0761F40E946C04A1E9B0E050
:1003AC000E947A04AFE9B0E00E940704A89806C046
:1003BC000E946C04A5EAB0E00E940704A8EEB3E02A
:1003CC000E94CA040E94CA030C94C8036297E1E01D
:1003DC00EA87E0E0EB87EABBEBBBE7BBE8BBE1E01D
:1003EC00E4BBE0E0E5BBEFE0E1BBE0EFE2BBA0E1AA
:1003FC000E941A04A89AA3EBB0E00E940704E4DE62
:10040C008F01EAE0F0E0E017F10749F4EA85FB859B
:10041C003196EA87FB87A4E6B0E00E94CA04AA855D
:10042C00BB85E4E0F0E00E94FE04309709F0E7C0E1
:10043C000E94CA03A2ECB0E00E947A040E948204DB
:10044C00ADECB0E00E9487049F01EAE0F0E0E21717
:10045C00F30721F4E0E0EA87EB87E1CF3A932A93A4
:10046C000E949004AF01EAE0F0E0E417F50721F4F4
:10047C00E0E0EA87EB87D3CF5A934A930E9490042B
:10048C00E88BF98BA889B9891A9721F4E0E0EA87FF
:10049C00EB87C5CFE889F9890E949E04EE87FF8718
:1004AC00AE85BF851A9721F4E0E0EA87EB87B7CFDA
:1004BC00EE85FF850E94A104F9010E945804FA01FF
:1004CC000E945E04E889F9890E946504AE85BF85A7
:1004DC00EA0FFB1FEC87FD87E0917C02F0917D0217
:1004EC00AC85BD85EA17FB0709F077C00E94CA03EB
:1004FC000E948204ADEDB0E00E947A040E94820456
:10050C00AAEEB0E00E948704E887F987A885B98530
:10051C001A9721F4E0E0EA87EB8781CFE885F9852B
:10052C000E949E04EE83FF83AE81BF811A9721F453
:10053C00E0E0EA87EB8773CFEE81FF810E949E0497
:10054C00EC83FD83AC81BD811A9721F4E0E0EA874E
:10055C00EB8765CFEC81FD810E949E04EA83FB83CF
:10056C00AA81BB811A9721F4E0E0EA87EB8757CF89
:10057C00EA81FB810E94A104E885F9850E94580458
:10058C00EE81FF810E945E04EC81FD810E94650476
:10059C00AA81BB81EA0FFB1FE883F983E0937C02FD
:1005AC00F0937D020E94CA030E948204ABEFB0E07C
:1005BC000E9407040E94AF04E881F981FA93EA9340
:1005CC00DE011C960E946B03DE011A960E94480401
:1005DC00E1E0F0E0EA87FB8711C00E948204AAE008
:1005EC00B1E00E940704A8EEB3E00E94CA040E9486
:1005FC00AF04A9E1B1E00E947A0422CF10CFF80138
:10060C00EB30A0E0FA0791F40E94AF04A7E2B1E04E
:10061C000E940704A89AA8EEB3E00E94CA040E94A4
:10062C00CA03AFE2B1E00E9407044DC0309721F439
:10063C00A0E30E94B40447C0E130A0E0FA0721F423
:10064C00A1E30E94B4043FC0E230A0E0FA0721F419
:10065C00A2E30E94B40437C0E330A0E0FA0721F40F
:10066C00A3E30E94B4042FC0E430A0E0FA0721F405
:10067C00A4E30E94B40427C0E530A0E0FA0721F4FB
:10068C00A5E30E94B4041FC0E630A0E0FA0721F4F1
:10069C00A6E30E94B40417C0E730A0E0FA0721F4E7
:1006AC00A7E30E94B4040FC0E830A0E0FA0721F4DD
:1006BC00A8E30E94B40407C0E930A0E0FA0719F4DB
:1006CC00A9E30E94B4049BCEFFCFBA93AA93A9913D
:1006DC00B991E991F99130962AF4E095F09531961B
:1006EC006DE26D93E89480E197E20DD088EE93E093
:1006FC000AD084E6992707D08AE005D06E2F10D057
:10070C0066276C9308956627E817F90720F0639520
:10071C00E81BF90BC9F7662311F416F008956894D9
:10072C00605D6D930895AA93EBB3EF70AE2FE881E3
:10073C00E07FEA2BEBBB82E08A95F1F7DA9A82E054
:10074C008A95F1F7DA9882E08A95F1F799C0AA9325
:10075C00A881E9DFE881E295E883A881E4DF81E103
:10076C008A95F1F78DC0AA93E881F0E0EE57FD4F22
:10077C00E081A981AE0FEBDFE981E0938602E8818D
:10078C00E093870222960895A2E00E94BD04ACE09B
:10079C00DEDFA1E00E94BD04E0E0E0938702E0937D
:1007AC0086020895AA93A881AA3031F0E0918802BC
:1007BC00A0918602AE1760F0E0E0EA93A091870268
:1007CC00AF5FA0938702CFDFA881AA3009F458C08D
:1007DC00E0918602EF5FE0938602D89AA881B7DF9A
:1007EC00D8984EC0BA93AA931A93A981BA81ED9165
:1007FC00A983BA831E2FE03019F0A12FD3DFF5CFD8
:10080C0010C0BA93AA931A93E981FA813196E983BD
:10081C00FA833197E4911E2FE03019F0A12FC2DF3B
:10082C00F3CF188123960895AA93EAB3E06FEABB3D
:10083C00D29AD09AD19ADA98D898D998E881E0933C
:10084C008802E058E0938402E881E054E09385024A
:10085C00A4E1B0E00E94CA040E94C3040E94C30435
:10086C000E94C304A0E25FDF81E28A95F1F7A8E25F
:10087C006EDFA4E06CDFA5E86ADFA6E068DF84DF4A
:10088C00219608950E94F803A8EEB3E00E94CA04D2
:10089C000C94CA03AEE6B2E00E946B03AEE6B2E083
:1008AC000C94F803A8EEB3E00E94E604BF0108958F
:1008BC00A4E6B0E00E94E6046E0F7F1F0895AAE044
:1008CC00B0E00E94E604E60FF71F0895E0E0EA931B
:1008DC00A0E00E94B903A4E8B0E00E940704E0E0A5
:1008EC00EA93A1E00C94B9030E940704A8EEB3E0CC
:1008FC000E94CA040C94CA03E0E0EA93A0E00C94B2
:10090C00B9030E940704E0E0EA93A1E00E94B90356
:10091C000C94EA00DE011C960E946B03DE011A9611
:10092C000E94F803A8ECB0E00E94CA040C94EA0000
:10093C00FA93EA93EFCFFA93EA93DE011C960E94A6
:10094C006B03DE011A960E94F803A8ECB0E00C943D
:10095C00CA04E0E0EA93A1E00C94B9030E94D80326
:10096C00A2E3B0E00E94CA04D8010C9437010E94A3
:10097C00AD03A3E0B0E00C94CA04A0E30E94990379
:10098C0081E28A95F1F70895109639F0A8958AEFCF
:10099C0090E00197F1F71197C9F70895F195E1955A
:1009AC00F0400895FA9FF02DEB9FF00DEA9FE02D9B
:1009BC00F10D08956E2F6A9FF0016B9FF00D089555
:1009CC0025D0F0DF0EF4EADF08950024112490E125
:1009DC00AA0FBB1F001C111C0E1A1F0A18F40E0EB6
:1009EC001F1E01C0A1609A9599F7FD01D0010895D1
:1009FC00E894B7FF04C0A095B09511966894F7FDE4
:100A0C00CDDFE3DFFD010EF4C9DF0895E894F7FFB5
:100A1C0002C0C4DF6894B7FF06C0A095B0951196CC
:100A2C0000F8039400FA08950590F491E02D0895D0
:00000001FF
