:0A0000000C9469000C9496000C9417
:10000A0000000C9400000C9400000C9400000C9466
:10001A0000000C9400000C9400000C9400000C9456
:10002A0000000C9400000C9400000C9400000C9446
:10003A0000000C9400000C9400000C9400000C9436
:10004A0000000C9400000C940000010054686174D4
:10005A007320636F72726563742E2E2E00496E636D
:10006A006F727265637420616E7377657200616E78
:10007A00737765722069732000776861743F3F0067
:10008A00477565737420746865206E756D62657254
:10009A003F3F3F00477565737420746865206E752D
:1000AA006D626572000001002D4E414E00494E46B8
:1000BA00000080C002000400540001006002B00089
:1000CA0002006402BC000000F894EE27ECBBF1E0E9
:1000DA00FBBFEBBFE5BF8DE0A2E0BB27ED938A959E
:1000EA00E9F780E098E0A0E6ED930197E9F7EEEBF7
:1000FA00F0E085919591009761F0A591B5910590F1
:10010A001590BF01F00105900D920197E1F7FB01EF
:10011A00F0CFEFE5EDBFE8E0EEBFC0E6D2E00C9429
:10012A00F7000A921A92FA926A937A938A939A93A6
:10013A00AA93BA93EA93FA93EFB7EA931A930E94AF
:10014A00AB0191D01E2F1F3FF1F0F201A12FB0E0B9
:10015A00EA17FB0741F4E6E0EA93A9E00E949E0150
:10016A00A6E5B0E00DC00E940C02A7E6B0E00E942E
:10017A00CC01E2E0EA93A1E00E949E01A8E7B0E088
:10018A000E94CC0109C0E6E0EA93A9E00E949E0120
:10019A00A3E8B0E00E94CC0148BAA8EEB3E00E94FE
:1001AA001E020E94AB010E946101DF01EAE0F0E059
:1001BA000E945F022F01E0E0E8BB0E940C02AAE85D
:1001CA00B0E00E94CC011991E991EFBFF991E99150
:1001DA00B991A9919991899179916991F990199017
:1001EA0009901895E0E0EABBEBBBE7BBE8BBE4BBD0
:1001FA00E5BBE1BBE2BBE3BFE2BFECBFEFBDEEBDD7
:10020A00EDBDECBDE7BDE6BDEBBDEABDE9BDE8BDB0
:10021A00E2BDE5BDE4BDE3BDE9BFEBB7E064EBBF1A
:10022A00E2E0E5BFE0E0E4BFE0E4EABFE0E0EAB92B
:10023A00E0E8E8B9E0E0E0BFE6B9EDB9E6BFA0E181
:10024A000E94DF017894EFEFE7BBE0E0E8BBE0EF64
:10025A00E4BBEFE0E5BB0E940C02AEE9B0E00E940D
:10026A00CC01FFCFFFCF1A931FEFEFEFE2BBAC98A1
:10027A00989B11E0999B12E09A9B13E0AC9AAD9877
:10028A00989B14E0999B15E09A9B16E0AD9AAE985C
:10029A00989B17E0999B18E09A9B19E0AE9AAF9841
:1002AA00989B1AE0999B10E09A9B1BE0AF9AEFE0AB
:1002BA00E5BBE12F19910895E0916002F091610286
:1002CA006091620270916302ADE6BEE486EC91E44D
:1002DA000E942C02EE59F8486F4F7F4FE09360025C
:1002EA00F09361026093620270936302FB01FF77ED
:1002FA000895AA93EBB3EF70AE2FE881E07FEA2B63
:10030A00EBBB82E08A95F1F7DA9A82E08A95F1F7F7
:10031A00DA9882E08A95F1F778C0AA93A881E9DF92
:10032A00E881E295E883A881E4DF81E18A95F1F723
:10033A006CC0AA93E881F0E0EC59FD4FE081A981F5
:10034A00AE0FEBDF7980688022960895A2E00E94C2
:10035A001102ACE0E2DFA1E00E941102E0E06E2EA1
:10036A007E2E0895AA93A881AA3011F0791448F034
:10037A00E0E0EA936394A62DDCDFA881AA3009F4B1
:10038A0044C07394D89AA881C8DFD8983EC0BA935B
:10039A00AA931A93E981FA813196E983FA8331970C
:1003AA00E4911E2FE03019F0A12FDCDFF3CF188182
:1003BA0023960895AA93EAB3E06FEABBD29AD09A39
:1003CA00D19ADA98D898D9989880E881E058E09339
:1003DA006602E881E054E0936702A4E1B0E00E947B
:1003EA001E020E9417020E9417020E941702A0E230
:1003FA0080DF81E28A95F1F7A8E28FDFA4E08DDF42
:10040A00A5E88BDFA6E089DFA1DF21960895E0E069
:10041A00EA93A0E00C949E010E949201A3E0B0E04E
:10042A000C941E02A0E30E947E0181E28A95F1F7F4
:10043A000895109639F08AEF90E00197F1F7A895A0
:10044A001197C9F70895F195E195F04008957A9FBB
:10045A00702D6B9F700DF89F700DE99F700D6A9F4C
:10046A00602D710DFB9F600D711DE89F600D711D60
:10047A008827FA9FF02D610D781FEB9FF00D611D03
:10048A00781FEA9FE02DF10D681F781F0895002458
:10049A00112490E1AA0FBB1F001C111C0E1A1F0A7F
:1004AA0018F40E0E1F1E01C0A1609A9599F7FD015E
:1004BA00D0010895E894B7FF04C0A095B0951196AD
:1004CA006894F7FDC0DFE3DFFD010EF4BCDF089599
:00000001FF
