:020000000C945E
:1000020034000C9400000C9400000C9400000C943A
:1000120000000C9400000C9400000C9400000C945E
:1000220000000C9400000C9400000C9400000C944E
:1000320000000C9400000C9400000C9400000C943E
:1000420000000C9400000C9400000C9400000C942E
:10005200000001002D4E414E00494E4600000100B5
:10006200600154000000F894EE27ECBBF1E0FBBF06
:10007200EBBFE5BF8DE0A2E0BB27ED938A95E9F7E0
:1000820080E094E0A0E6ED930197E9F7E0E6F0E086
:1000920085919591009761F0A591B5910590159084
:1000A200BF01F00105900D920197E1F7FB01F0CF3E
:1000B200EFE5EDBFE4E0EEBFC0E6D1E00C946100F5
:1000C200E0E0EABBEFEFEBBBE4BBE0E0E5BBE0E086
:1000D200E5BBC8990CC0EAEAE5BBA4EFB1E00E9417
:1000E200CD02E5E5E5BBA4EFB1E00E94CD02C999DE
:1000F20013C000E010E00E946302A0E0C999A1E0F1
:10010200E0E00E94AF04E02139F00E946A020E94FE
:1001120079020F5F1F4FEFCFCA991CC020E030E079
:1001220000E010E00E946302A0E0CA99A1E0E0E0D2
:100132000E94AF04E02171F00E946A02D9010E947C
:10014200AA040E94DA040E949A030E9479020F5FB5
:100152001F4FE8CFBCCFFFCF0E94D3047B816A81BF
:10016200F981E88177FB770F67FD7160972F9E57C2
:1001720081F078F0983190F4AA27BB278827089459
:100182008795B795A7959A95D1F7EA23FB2368231C
:1001920005C0E8947727EE27FF2766276F777695C5
:1001A20008F4606877F9A991B99189919991EA1750
:1001B200FB076807790797FB08950E94D3040E9402
:1001C200C4040E94AD000E94C90419F40E94810275
:1001D20005C0E6F70E9481020E94840224960895D7
:1001E2000E94D30424971A930A930E948B020E94BE
:1001F200EE042CF0EFEFFFEF6FE77FEF73C00E948A
:1002020090020E94CE04ADB7BEB711971F930F9311
:100212000E94D7020F911F910E9495020E948B02A9
:10022200E3EFF4E065E37FE30E947D0440F40E9483
:100232009A020E949A030E949502015010400E9465
:1002420090020E9484027F936F93FF93EF930E9428
:100252009002A0E0B0E080E89FE30E949A03AF9191
:10026200BF918F919F910E9438040E9495020E9433
:100272009A020E949C02A6E2B2E485E69FE30E94F3
:10028200A302EEE4F1E164E570E40E94A8020E9498
:100292008B020E94EA037F936F93FF93EF930E9476
:1002A200AD02ADE4B1E184ED9FE30E949303AF910F
:1002B200BF918F919F910E9438047F936F93FF9318
:1002C200EF93F8010E94A5040E946003A8E1B2E73F
:1002D20081E39FE30E94EA03AF91BF918F919F91C7
:1002E2000E949A03198108812A9608950E94D304D4
:1002F20028971A930A930E94B202E0E5FCEA6EEA9A
:1003020072EC0E947D0418F40E94B70285C0EA854F
:10031200FB856C857D850E94EA0429F4E0E0F0E02B
:1003220060E87FE379C00E94B202E8E1F2E761EBA4
:1003320072E40E947D0409F008F405C0EFEFFFEFBC
:100342006FE77FE769C00E94B202EBE3FAEA68EB6B
:100352007FE30E94EA03EA87FB876C877D870E941E
:10036200B2022BDF0E9429038F010E94B2020E9477
:10037200A5040E9460030E94A802DF01CB01E0E015
:10038200F0E060E07FE30E94A8020E9495020E94D2
:100392009A020E949C02ADE6BCE48CE69DE30E94B8
:1003A200EA03A6EAB3EE86EE90E40E949A030E9464
:1003B2008B020E94EA030E9495020E94AD02A8E20B
:1003C200BDE886EA91E40E949A03EA83FB836C8388
:1003D2007D830E949002AA81BB818C819D810E94B3
:1003E2009A03A3EFB4E085EB9FE30E94EA037F93B5
:1003F2006F93FF93EF930E948B020E94AD020E94C3
:100402009303AF91BF918F919F910E9438040E94F4
:10041200CE04D8010E94E802198108812E9608951F
:100422000E94D30424970E94BC020E94EA0419F499
:100432000E94B70245C0A885B9858A859B850E941E
:10044200EE0494F40E94C1020E94EA0429F4E0E05E
:10045200F0E060E87FE334C0A885B9858A859B8592
:100462000E94C60243DF2CC00E94C102DE010E942C
:1004720029030E94BA040E9481020E946003DF01E4
:10048200CB010E94C1020E94F40419F00E94B7023B
:1004920017C00E94BC020E94F402DF01CB010E943D
:1004A200C60224DFE887F9876A877B87E881E170E3
:1004B20019F40E94BC0204C00E94BC020E94F40211
:1004C2002C960895D801E7E0F0E00E94B4040E2EC5
:1004D2000895E0E0F0E060E070E40E94CE04F801EC
:1004E2000E94A5040E946003DF01CB010C9411025B
:1004F2000E9429039F0125BBAAEFB0E00C94CD0214
:100502000E94BF040895A0E0B0E080E89FE30E944B
:1005120093030895AE81BF81888599850895EE8100
:10052200FF81688579850895EE83FF8368877987DF
:100532000895F5DFEFCF0E94EA03EA83FB836C8321
:100542007D8308950E94EA03DF01CB0108950E9492
:10055200DD040E9493030895EA81FB816C817D8111
:100562000895AA85BB858C859D850895E0E0F0E01D
:1005720060E070E00895E885F9856A857B850895D5
:10058200EC81FD816E817F8108950E94F100AC8132
:10059200BD818E819F81D6CF109639F08AEF90E08F
:1005A2000197F1F7A8951197C9F70895E991F99183
:1005B2006991799177FB660F771F88277E57880BA1
:1005C2007D938C937EE7769567956EF00895E99119
:1005D200F9916991799177FB660F771F7A0F76957A
:1005E20067950EF0089530976040704009F070589A
:1005F2000895552342F4503811F4E0FF04C03196B7
:10060200691F791F6BF050E8572711F45F93CFC031
:100612005F3F31F0660F000C57956795752F08956F
:100622005F9300200AF0CFC0C8C050E8192E1522EF
:10063200880F991F9527550F879550E8072E052299
:10064200660F771F7527550F67950895689401C047
:10065200E8945F93F2DF703818F07F3F08F4A7C088
:1006620056E1571BAAF4519558300EF4593030F028
:10067200EFEFFFEF6FEF7FE777F91AC07727552388
:10068200B9F0EE0FFF1F661F771F5A95D1F710C002
:100692007727583028F0EF2FF62F672F5850F9CFD1
:1006A200552331F076956795F795E7955A95D1F7E9
:1006B20000200AF441D15F910895689401C0E89442
:1006C200309760407040B1F0002426F0772312F496
:1006D200009432D1172E7EE1112032F07A95EE0F7E
:1006E200FF1F661F111CF9CFEF2FF62F612D5F93AD
:1006F2008ADF5F9108954F93AF01FD01DA01AB01EB
:10070200BC01CA01402D012C142E4F910895EA0F0D
:10071200FB1F681F0895E095F0956095EF5FFF4F0E
:100722006F4F08955F9381DF903871F150E815267D
:1007320004C05F937ADF903839F1703821F1572F76
:10074200591B2BF112F4D7DFFACF583118F0AA2730
:10075200BB278827583028F0AB2FB82F882758504E
:10076200F9CF552329F08695B795A7955A95D9F7CC
:10077200502D512572F0CBDF38F46795F795E79548
:10078200739513F420C0B7DF3EDF5F910895D8F769
:10079200FBCFEA1BFB0B680B51F010F40094BBDF9C
:1007A200662392F3EE0FFF1F661F7A95CBF7EE27B3
:1007B200FF27662777275F910895EFEFFFEF6FE737
:1007C2007FEF5F910895EFEFFFEF6FE77FE75F91B4
:1007D20008955F932ADF703851F3903841F3012472
:1007E2000894791F23F41CF300203AF3ECCF0F9204
:1007F2001F932F933F934F93112722279927689F87
:10080200A0018F9F302D410D591F6B9F300D411D4F
:10081200591F8E9F27D0BF9F25D06A9F23D0BE9F8E
:100822001DD0AF9F1BD0AE9F110D291F391F491F2D
:10083200591FE32FF42F652F522F4F913F912F9184
:100842001F910F9066232AF0550FEE1FFF1F661FA0
:1008520002C073954BF2CDDE5F910895100D211DFC
:10086200391F02C0200D311D491F591F08955F9382
:10087200DCDE703821F411200AF49FCFA4CF903827
:1008820009F495CF01240894970B1BF4D4F30020AC
:10089200F3CF792F1F932F933F934F931124112757
:1008A200222733274427552790E2AE17BF07860732
:1008B200410730F0AE1BBF0B860B410B089401C001
:1008C2008894551F221F331F111CAA1FBB1F881F8C
:1008D200441F9A9551F7F901612D4F913F912F9144
:1008E2001F91662332F0550FEE1FFF1F661F7A9588
:1008F20043F27FDE5F91089599239AF0772342F0C5
:10090200971748F029F4AE17BF07860720F031F099
:1009120098948894089598940894089518948894C3
:1009220008957723C2F7971798F3A9F7EA17FB07F9
:10093200680788F399F3ECCFF09560957095E1958F
:10094200FF4F6F4F7F4F08956F2F660F660B762F05
:1009520008958B2F880F880B982F0895EA17E1E0EE
:1009620009F0EE270895EA17FB07E1E00CF4EE2701
:100972000895ED93FD936D937C930895E881F98139
:100982006A817B810895A881B9818A819B810895BA
:10099200E883F9836A837B8308957A936A93FA934F
:1009A200EA9308959A938A93BA93AA9308956894BE
:1009B20001C0E89401D084DE182E862F612D192EF5
:1009C200972F712D1B2EBF2FF12D1A2EAE2FE12D39
:1009D2000895309760407040089500240A160B066F
:1009E200080609060895EA17FB07680779070895BC
:00000001FF
