:040000000C942A0032
:100004000C9400000C9400000C9400000C9400006C
:100014000C9400000C9400000C9400000C9400005C
:100024000C9400000C9400000C9400000C9400004C
:100034000C9400000C9400000C9400000C9400003C
:100044000C9400000C9400000C9400000C9400002C
:10005400F894EE27ECBBF1E0FBBFEBBFE5BF8DE00E
:10006400A2E0BB27ED938A95E9F780E094E0A0E64F
:10007400ED930197E9F7EFE5EDBFE4E0EEBFC0E6ED
:10008400D1E00C944500EFEFEABB0DD00CD00BD0BF
:100094001DD01CD01BD021D020D01FD029D028D0D7
:1000A40027D0F3CFFFCFE1E02CD0E2E02AD0E4E088
:1000B40028D0E8E026D0E0E124D0E0E222D0E0E459
:1000C40020D0E0E8EBBBA8EEB3E018C0EFE019D015
:1000D400E0E0EBBBA8EEB3E011C0E1E812D0E3E648
:1000E40010D0E7E70ED0EFE7EBBBA8EEB3E006C015
:1000F400EFEF07D0E0E0EBBBA4E6B0E00E9488009D
:100104000895EBBBA8EEB3E00C948800109639F088
:100114008AEF90E00197F1F7A8951197C9F7089530
:00000001FF
