:060000000C942A000C9490
:1000060000000C9400000C9400000C9400000C946A
:1000160000000C9400000C9400000C9400000C945A
:1000260000000C9400000C9400000C9400000C944A
:1000360000000C9400000C9400000C9400000C943A
:1000460000000C9400000C9400000C940000F8943E
:10005600EE27ECBBF1E0FBBFEBBFE5BF8DE0A2E016
:10006600BB27ED938A95E9F780E098E0A0E6ED934B
:100076000197E9F7EFE5EDBFE8E0EEBFC0E6D2E0B5
:100086000C944500EFEFEABB0DD00CD00BD01AD084
:1000960019D018D019D018D017D01ED01DD01CD00A
:1000A600F3CFFFCFE1E025D0E2E023D0E4E021D09A
:1000B600E8E01FD0E0E11DD0E0E21BD0E0E419D07B
:1000C600E0E811C0EFE009C0E1E813D0E3E611D0A3
:1000D600E7E70FD0EFE707C0EFEFEBBBA4E6B0E032
:1000E6000E948100E0E0EBBBA4E6B0E00E94810044
:1000F6000895EBBBA4E6B0E00C948100109639F0AD
:100106008AEF90E00197F1F7A8951197C9F708953E
:00000001FF
